{
  "contractName": "Marketplace",
  "abi": [
    {
      "inputs": [
        {
          "internalType": "uint256",
          "name": "_feePercent",
          "type": "uint256"
        }
      ],
      "stateMutability": "nonpayable",
      "type": "constructor"
    },
    {
      "anonymous": false,
      "inputs": [
        {
          "indexed": false,
          "internalType": "uint256",
          "name": "itemId",
          "type": "uint256"
        },
        {
          "indexed": true,
          "internalType": "address",
          "name": "nft",
          "type": "address"
        },
        {
          "indexed": false,
          "internalType": "uint256",
          "name": "tokenId",
          "type": "uint256"
        },
        {
          "indexed": false,
          "internalType": "uint256",
          "name": "price",
          "type": "uint256"
        },
        {
          "indexed": true,
          "internalType": "address",
          "name": "seller",
          "type": "address"
        }
      ],
      "name": "Offered",
      "type": "event"
    },
    {
      "inputs": [],
      "name": "feeAccount",
      "outputs": [
        {
          "internalType": "address payable",
          "name": "",
          "type": "address"
        }
      ],
      "stateMutability": "view",
      "type": "function",
      "constant": true
    },
    {
      "inputs": [],
      "name": "feePercent",
      "outputs": [
        {
          "internalType": "uint256",
          "name": "",
          "type": "uint256"
        }
      ],
      "stateMutability": "view",
      "type": "function",
      "constant": true
    },
    {
      "inputs": [],
      "name": "itemCount",
      "outputs": [
        {
          "internalType": "uint256",
          "name": "",
          "type": "uint256"
        }
      ],
      "stateMutability": "view",
      "type": "function",
      "constant": true
    },
    {
      "inputs": [
        {
          "internalType": "uint256",
          "name": "",
          "type": "uint256"
        }
      ],
      "name": "items",
      "outputs": [
        {
          "internalType": "uint256",
          "name": "itemId",
          "type": "uint256"
        },
        {
          "internalType": "contract IERC721",
          "name": "nft",
          "type": "address"
        },
        {
          "internalType": "uint256",
          "name": "tokenId",
          "type": "uint256"
        },
        {
          "internalType": "uint256",
          "name": "price",
          "type": "uint256"
        },
        {
          "internalType": "address payable",
          "name": "seller",
          "type": "address"
        },
        {
          "internalType": "bool",
          "name": "sold",
          "type": "bool"
        }
      ],
      "stateMutability": "view",
      "type": "function",
      "constant": true
    },
    {
      "inputs": [
        {
          "internalType": "contract IERC721",
          "name": "_nft",
          "type": "address"
        },
        {
          "internalType": "uint256",
          "name": "_tokenId",
          "type": "uint256"
        },
        {
          "internalType": "uint256",
          "name": "_price",
          "type": "uint256"
        }
      ],
      "name": "makeItem",
      "outputs": [],
      "stateMutability": "nonpayable",
      "type": "function"
    }
  ],
  "bytecode": "0x60c060405234801561001057600080fd5b50604051610a4b380380610a4b833981810160405281019061003291906100b7565b60016000819055503373ffffffffffffffffffffffffffffffffffffffff1660808173ffffffffffffffffffffffffffffffffffffffff16815250508060a08181525050506100e4565b600080fd5b6000819050919050565b61009481610081565b811461009f57600080fd5b50565b6000815190506100b18161008b565b92915050565b6000602082840312156100cd576100cc61007c565b5b60006100db848285016100a2565b91505092915050565b60805160a05161094261010960003960006101330152600061010901526109426000f3fe608060405234801561001057600080fd5b50600436106100575760003560e01c806365e17c9d1461005c5780636bfb0d011461007a5780637fd6f15c14610098578063bfb231d2146100b6578063fa00afc7146100eb575b600080fd5b610064610107565b6040516100719190610504565b60405180910390f35b61008261012b565b60405161008f9190610538565b60405180910390f35b6100a0610131565b6040516100ad9190610538565b60405180910390f35b6100d060048036038101906100cb9190610584565b610155565b6040516100e29695949392919061062b565b60405180910390f35b610105600480360381019061010091906106dc565b6101de565b005b7f000000000000000000000000000000000000000000000000000000000000000081565b60015481565b7f000000000000000000000000000000000000000000000000000000000000000081565b60026020528060005260406000206000915090508060000154908060010160009054906101000a900473ffffffffffffffffffffffffffffffffffffffff16908060020154908060030154908060040160009054906101000a900473ffffffffffffffffffffffffffffffffffffffff16908060040160149054906101000a900460ff16905086565b6101e661046a565b60008111610229576040517f08c379a00000000000000000000000000000000000000000000000000000000081526004016102209061078c565b60405180910390fd5b6001600081548092919061023c906107db565b91905055508273ffffffffffffffffffffffffffffffffffffffff166323b872dd3330856040518463ffffffff1660e01b815260040161027e93929190610832565b600060405180830381600087803b15801561029857600080fd5b505af11580156102ac573d6000803e3d6000fd5b505050506040518060c0016040528060015481526020018473ffffffffffffffffffffffffffffffffffffffff1681526020018381526020018281526020013373ffffffffffffffffffffffffffffffffffffffff168152602001600015158152506002600060015481526020019081526020016000206000820151816000015560208201518160010160006101000a81548173ffffffffffffffffffffffffffffffffffffffff021916908373ffffffffffffffffffffffffffffffffffffffff160217905550604082015181600201556060820151816003015560808201518160040160006101000a81548173ffffffffffffffffffffffffffffffffffffffff021916908373ffffffffffffffffffffffffffffffffffffffff16021790555060a08201518160040160146101000a81548160ff0219169083151502179055509050503373ffffffffffffffffffffffffffffffffffffffff168373ffffffffffffffffffffffffffffffffffffffff167f655a0cf9c8db81512be9a76dc1c5ae5380b8816ce6ad659cd61b715e2999d59a600154858560405161045593929190610869565b60405180910390a36104656104b9565b505050565b6002600054036104af576040517f08c379a00000000000000000000000000000000000000000000000000000000081526004016104a6906108ec565b60405180910390fd5b6002600081905550565b6001600081905550565b600073ffffffffffffffffffffffffffffffffffffffff82169050919050565b60006104ee826104c3565b9050919050565b6104fe816104e3565b82525050565b600060208201905061051960008301846104f5565b92915050565b6000819050919050565b6105328161051f565b82525050565b600060208201905061054d6000830184610529565b92915050565b600080fd5b6105618161051f565b811461056c57600080fd5b50565b60008135905061057e81610558565b92915050565b60006020828403121561059a57610599610553565b5b60006105a88482850161056f565b91505092915050565b6000819050919050565b60006105d66105d16105cc846104c3565b6105b1565b6104c3565b9050919050565b60006105e8826105bb565b9050919050565b60006105fa826105dd565b9050919050565b61060a816105ef565b82525050565b60008115159050919050565b61062581610610565b82525050565b600060c0820190506106406000830189610529565b61064d6020830188610601565b61065a6040830187610529565b6106676060830186610529565b61067460808301856104f5565b61068160a083018461061c565b979650505050505050565b6000610697826104c3565b9050919050565b60006106a98261068c565b9050919050565b6106b98161069e565b81146106c457600080fd5b50565b6000813590506106d6816106b0565b92915050565b6000806000606084860312156106f5576106f4610553565b5b6000610703868287016106c7565b93505060206107148682870161056f565b92505060406107258682870161056f565b9150509250925092565b600082825260208201905092915050565b7f5072696365206d7573742062652067726561746572207468616e207a65726f00600082015250565b6000610776601f8361072f565b915061078182610740565b602082019050919050565b600060208201905081810360008301526107a581610769565b9050919050565b7f4e487b7100000000000000000000000000000000000000000000000000000000600052601160045260246000fd5b60006107e68261051f565b91507fffffffffffffffffffffffffffffffffffffffffffffffffffffffffffffffff8203610818576108176107ac565b5b600182019050919050565b61082c8161068c565b82525050565b60006060820190506108476000830186610823565b6108546020830185610823565b6108616040830184610529565b949350505050565b600060608201905061087e6000830186610529565b61088b6020830185610529565b6108986040830184610529565b949350505050565b7f5265656e7472616e637947756172643a207265656e7472616e742063616c6c00600082015250565b60006108d6601f8361072f565b91506108e1826108a0565b602082019050919050565b60006020820190508181036000830152610905816108c9565b905091905056fea264697066735822122073ab51bb1d7d807a57b0cafa2fe79c098e9bf91ce5ae15e0772f89e17ebf781a64736f6c63430008110033",
  "immutableReferences": {
    "2720": [
      {
        "length": 32,
        "start": 265
      }
    ],
    "2722": [
      {
        "length": 32,
        "start": 307
      }
    ]
  },
  "source": "// SPDX-License-Identifier: MIT\r\npragma solidity ^0.8.4;\r\n\r\nimport \"@openzeppelin/contracts/token/ERC721/IERC721.sol\";\r\nimport \"@openzeppelin/contracts/security/ReentrancyGuard.sol\";\r\n\r\n\r\n\r\n//ReentrancyGuard per proteggere lo smart contract dal reentrancy attacks\r\ncontract Marketplace is ReentrancyGuard{\r\n    address payable public immutable feeAccount; //the account that receives fees\r\n    uint public immutable feePercent; //the fee percentage on sale\r\n    uint public itemCount;\r\n\r\n    struct Item{\r\n        uint itemId;\r\n        IERC721 nft; //istanza del contratto NFT associato all'NFT\r\n        uint tokenId;\r\n        uint price;\r\n        address payable seller;\r\n        bool sold;\r\n    }\r\n\r\n    //indexed ci permette di cercare l'evento usando l'indirizzo dell'nft e del venditore come filtro\r\n    event Offered (\r\n        uint itemId,\r\n        address indexed nft,\r\n        uint tokenId,\r\n        uint price,\r\n        address indexed seller\r\n    );\r\n\r\n    // itemId (key) -> Item (value)\r\n    mapping(uint => Item) public items;\r\n\r\n    constructor(uint _feePercent){\r\n        feeAccount = payable(msg.sender);\r\n        feePercent = _feePercent;\r\n    }\r\n    //nonReentrant previene che utenti malintenzionait chiamino questa funzione e poi rientrino dinuovo dentro prima che la prima chiamata della funzione sia terminata.\r\n    function makeItem(IERC721 _nft, uint _tokenId, uint _price) external nonReentrant{\r\n        require(_price > 0, \"Price must be greater than zero\");\r\n        itemCount++;\r\n        //transfer nft\r\n        _nft.transferFrom(msg.sender, address(this), _tokenId);\r\n        // add new item to items mapping\r\n        items[itemCount] = Item(\r\n            itemCount,\r\n            _nft,\r\n            _tokenId,\r\n            _price,\r\n            payable(msg.sender),\r\n            false\r\n        );\r\n        //emit Offered event\r\n        //un envento permette di eseguire il log dei dati della blockchain.\r\n        emit Offered(\r\n            itemCount,\r\n            address(_nft),\r\n            _tokenId,\r\n            _price,\r\n            msg.sender\r\n        );\r\n    }\r\n}   ",
  "sourcePath": "D:\\Desktop\\Universit\\Sicurezza dei dati\\NFT-marketplace\\src\\backend\\contracts\\Marketplace.sol",
  "compiler": {
    "name": "solc",
    "version": "0.8.17+commit.8df45f5f.Emscripten.clang"
  },
  "schemaVersion": "3.4.11",
  "updatedAt": "2023-02-03T07:27:09.504Z",
  "networkType": "ethereum",
  "devdoc": {
    "kind": "dev",
    "methods": {},
    "version": 1
  },
  "userdoc": {
    "kind": "user",
    "methods": {},
    "version": 1
  }
}