{
  "contractName": "NFT",
  "abi": [
    {
      "inputs": [],
      "stateMutability": "nonpayable",
      "type": "constructor"
    },
    {
      "anonymous": false,
      "inputs": [
        {
          "indexed": true,
          "internalType": "address",
          "name": "owner",
          "type": "address"
        },
        {
          "indexed": true,
          "internalType": "address",
          "name": "approved",
          "type": "address"
        },
        {
          "indexed": true,
          "internalType": "uint256",
          "name": "tokenId",
          "type": "uint256"
        }
      ],
      "name": "Approval",
      "type": "event"
    },
    {
      "anonymous": false,
      "inputs": [
        {
          "indexed": true,
          "internalType": "address",
          "name": "owner",
          "type": "address"
        },
        {
          "indexed": true,
          "internalType": "address",
          "name": "operator",
          "type": "address"
        },
        {
          "indexed": false,
          "internalType": "bool",
          "name": "approved",
          "type": "bool"
        }
      ],
      "name": "ApprovalForAll",
      "type": "event"
    },
    {
      "anonymous": false,
      "inputs": [
        {
          "indexed": true,
          "internalType": "address",
          "name": "from",
          "type": "address"
        },
        {
          "indexed": true,
          "internalType": "address",
          "name": "to",
          "type": "address"
        },
        {
          "indexed": true,
          "internalType": "uint256",
          "name": "tokenId",
          "type": "uint256"
        }
      ],
      "name": "Transfer",
      "type": "event"
    },
    {
      "inputs": [
        {
          "internalType": "address",
          "name": "to",
          "type": "address"
        },
        {
          "internalType": "uint256",
          "name": "tokenId",
          "type": "uint256"
        }
      ],
      "name": "approve",
      "outputs": [],
      "stateMutability": "nonpayable",
      "type": "function"
    },
    {
      "inputs": [
        {
          "internalType": "address",
          "name": "owner",
          "type": "address"
        }
      ],
      "name": "balanceOf",
      "outputs": [
        {
          "internalType": "uint256",
          "name": "",
          "type": "uint256"
        }
      ],
      "stateMutability": "view",
      "type": "function",
      "constant": true
    },
    {
      "inputs": [
        {
          "internalType": "uint256",
          "name": "tokenId",
          "type": "uint256"
        }
      ],
      "name": "getApproved",
      "outputs": [
        {
          "internalType": "address",
          "name": "",
          "type": "address"
        }
      ],
      "stateMutability": "view",
      "type": "function",
      "constant": true
    },
    {
      "inputs": [
        {
          "internalType": "address",
          "name": "owner",
          "type": "address"
        },
        {
          "internalType": "address",
          "name": "operator",
          "type": "address"
        }
      ],
      "name": "isApprovedForAll",
      "outputs": [
        {
          "internalType": "bool",
          "name": "",
          "type": "bool"
        }
      ],
      "stateMutability": "view",
      "type": "function",
      "constant": true
    },
    {
      "inputs": [],
      "name": "name",
      "outputs": [
        {
          "internalType": "string",
          "name": "",
          "type": "string"
        }
      ],
      "stateMutability": "view",
      "type": "function",
      "constant": true
    },
    {
      "inputs": [
        {
          "internalType": "uint256",
          "name": "tokenId",
          "type": "uint256"
        }
      ],
      "name": "ownerOf",
      "outputs": [
        {
          "internalType": "address",
          "name": "",
          "type": "address"
        }
      ],
      "stateMutability": "view",
      "type": "function",
      "constant": true
    },
    {
      "inputs": [
        {
          "internalType": "address",
          "name": "from",
          "type": "address"
        },
        {
          "internalType": "address",
          "name": "to",
          "type": "address"
        },
        {
          "internalType": "uint256",
          "name": "tokenId",
          "type": "uint256"
        }
      ],
      "name": "safeTransferFrom",
      "outputs": [],
      "stateMutability": "nonpayable",
      "type": "function"
    },
    {
      "inputs": [
        {
          "internalType": "address",
          "name": "from",
          "type": "address"
        },
        {
          "internalType": "address",
          "name": "to",
          "type": "address"
        },
        {
          "internalType": "uint256",
          "name": "tokenId",
          "type": "uint256"
        },
        {
          "internalType": "bytes",
          "name": "_data",
          "type": "bytes"
        }
      ],
      "name": "safeTransferFrom",
      "outputs": [],
      "stateMutability": "nonpayable",
      "type": "function"
    },
    {
      "inputs": [
        {
          "internalType": "address",
          "name": "operator",
          "type": "address"
        },
        {
          "internalType": "bool",
          "name": "approved",
          "type": "bool"
        }
      ],
      "name": "setApprovalForAll",
      "outputs": [],
      "stateMutability": "nonpayable",
      "type": "function"
    },
    {
      "inputs": [
        {
          "internalType": "bytes4",
          "name": "interfaceId",
          "type": "bytes4"
        }
      ],
      "name": "supportsInterface",
      "outputs": [
        {
          "internalType": "bool",
          "name": "",
          "type": "bool"
        }
      ],
      "stateMutability": "view",
      "type": "function",
      "constant": true
    },
    {
      "inputs": [],
      "name": "symbol",
      "outputs": [
        {
          "internalType": "string",
          "name": "",
          "type": "string"
        }
      ],
      "stateMutability": "view",
      "type": "function",
      "constant": true
    },
    {
      "inputs": [],
      "name": "tokenCount",
      "outputs": [
        {
          "internalType": "uint256",
          "name": "",
          "type": "uint256"
        }
      ],
      "stateMutability": "view",
      "type": "function",
      "constant": true
    },
    {
      "inputs": [
        {
          "internalType": "uint256",
          "name": "tokenId",
          "type": "uint256"
        }
      ],
      "name": "tokenURI",
      "outputs": [
        {
          "internalType": "string",
          "name": "",
          "type": "string"
        }
      ],
      "stateMutability": "view",
      "type": "function",
      "constant": true
    },
    {
      "inputs": [
        {
          "internalType": "address",
          "name": "from",
          "type": "address"
        },
        {
          "internalType": "address",
          "name": "to",
          "type": "address"
        },
        {
          "internalType": "uint256",
          "name": "tokenId",
          "type": "uint256"
        }
      ],
      "name": "transferFrom",
      "outputs": [],
      "stateMutability": "nonpayable",
      "type": "function"
    },
    {
      "inputs": [
        {
          "internalType": "string",
          "name": "_tokenURI",
          "type": "string"
        }
      ],
      "name": "mint",
      "outputs": [
        {
          "internalType": "uint256",
          "name": "",
          "type": "uint256"
        }
      ],
      "stateMutability": "nonpayable",
      "type": "function"
    }
  ],
  "bytecode": "0x60806040523480156200001157600080fd5b506040518060400160405280600881526020017f44617070204e46540000000000000000000000000000000000000000000000008152506040518060400160405280600481526020017f444150500000000000000000000000000000000000000000000000000000000081525081600090816200008f919062000324565b508060019081620000a1919062000324565b5050506200040b565b600081519050919050565b7f4e487b7100000000000000000000000000000000000000000000000000000000600052604160045260246000fd5b7f4e487b7100000000000000000000000000000000000000000000000000000000600052602260045260246000fd5b600060028204905060018216806200012c57607f821691505b602082108103620001425762000141620000e4565b5b50919050565b60008190508160005260206000209050919050565b60006020601f8301049050919050565b600082821b905092915050565b600060088302620001ac7fffffffffffffffffffffffffffffffffffffffffffffffffffffffffffffffff826200016d565b620001b886836200016d565b95508019841693508086168417925050509392505050565b6000819050919050565b6000819050919050565b600062000205620001ff620001f984620001d0565b620001da565b620001d0565b9050919050565b6000819050919050565b6200022183620001e4565b6200023962000230826200020c565b8484546200017a565b825550505050565b600090565b6200025062000241565b6200025d81848462000216565b505050565b5b8181101562000285576200027960008262000246565b60018101905062000263565b5050565b601f821115620002d4576200029e8162000148565b620002a9846200015d565b81016020851015620002b9578190505b620002d1620002c8856200015d565b83018262000262565b50505b505050565b600082821c905092915050565b6000620002f960001984600802620002d9565b1980831691505092915050565b6000620003148383620002e6565b9150826002028217905092915050565b6200032f82620000aa565b67ffffffffffffffff8111156200034b576200034a620000b5565b5b62000357825462000113565b6200036482828562000289565b600060209050601f8311600181146200039c576000841562000387578287015190505b62000393858262000306565b86555062000403565b601f198416620003ac8662000148565b60005b82811015620003d657848901518255600182019150602085019450602081019050620003af565b86831015620003f65784890151620003f2601f891682620002e6565b8355505b6001600288020188555050505b505050505050565b612dd5806200041b6000396000f3fe608060405234801561001057600080fd5b50600436106100f55760003560e01c806370a0823111610097578063b88d4fde11610066578063b88d4fde14610284578063c87b56dd146102a0578063d85d3d27146102d0578063e985e9c514610300576100f5565b806370a08231146101fc57806395d89b411461022c5780639f181b5e1461024a578063a22cb46514610268576100f5565b8063095ea7b3116100d3578063095ea7b31461017857806323b872dd1461019457806342842e0e146101b05780636352211e146101cc576100f5565b806301ffc9a7146100fa57806306fdde031461012a578063081812fc14610148575b600080fd5b610114600480360381019061010f91906118f9565b610330565b6040516101219190611941565b60405180910390f35b610132610412565b60405161013f91906119ec565b60405180910390f35b610162600480360381019061015d9190611a44565b6104a4565b60405161016f9190611ab2565b60405180910390f35b610192600480360381019061018d9190611af9565b610529565b005b6101ae60048036038101906101a99190611b39565b610640565b005b6101ca60048036038101906101c59190611b39565b6106a0565b005b6101e660048036038101906101e19190611a44565b6106c0565b6040516101f39190611ab2565b60405180910390f35b61021660048036038101906102119190611b8c565b610771565b6040516102239190611bc8565b60405180910390f35b610234610828565b60405161024191906119ec565b60405180910390f35b6102526108ba565b60405161025f9190611bc8565b60405180910390f35b610282600480360381019061027d9190611c0f565b6108c0565b005b61029e60048036038101906102999190611d84565b6108d6565b005b6102ba60048036038101906102b59190611a44565b610938565b6040516102c791906119ec565b60405180910390f35b6102ea60048036038101906102e59190611ea8565b610a89565b6040516102f79190611bc8565b60405180910390f35b61031a60048036038101906103159190611ef1565b610ac5565b6040516103279190611941565b60405180910390f35b60007f80ac58cd000000000000000000000000000000000000000000000000000000007bffffffffffffffffffffffffffffffffffffffffffffffffffffffff1916827bffffffffffffffffffffffffffffffffffffffffffffffffffffffff191614806103fb57507f5b5e139f000000000000000000000000000000000000000000000000000000007bffffffffffffffffffffffffffffffffffffffffffffffffffffffff1916827bffffffffffffffffffffffffffffffffffffffffffffffffffffffff1916145b8061040b575061040a82610b59565b5b9050919050565b60606000805461042190611f60565b80601f016020809104026020016040519081016040528092919081815260200182805461044d90611f60565b801561049a5780601f1061046f5761010080835404028352916020019161049a565b820191906000526020600020905b81548152906001019060200180831161047d57829003601f168201915b5050505050905090565b60006104af82610bc3565b6104ee576040517f08c379a00000000000000000000000000000000000000000000000000000000081526004016104e590612003565b60405180910390fd5b6004600083815260200190815260200160002060009054906101000a900473ffffffffffffffffffffffffffffffffffffffff169050919050565b6000610534826106c0565b90508073ffffffffffffffffffffffffffffffffffffffff168373ffffffffffffffffffffffffffffffffffffffff16036105a4576040517f08c379a000000000000000000000000000000000000000000000000000000000815260040161059b90612095565b60405180910390fd5b8073ffffffffffffffffffffffffffffffffffffffff166105c3610c2f565b73ffffffffffffffffffffffffffffffffffffffff1614806105f257506105f1816105ec610c2f565b610ac5565b5b610631576040517f08c379a000000000000000000000000000000000000000000000000000000000815260040161062890612127565b60405180910390fd5b61063b8383610c37565b505050565b61065161064b610c2f565b82610cf0565b610690576040517f08c379a0000000000000000000000000000000000000000000000000000000008152600401610687906121b9565b60405180910390fd5b61069b838383610dce565b505050565b6106bb838383604051806020016040528060008152506108d6565b505050565b6000806002600084815260200190815260200160002060009054906101000a900473ffffffffffffffffffffffffffffffffffffffff169050600073ffffffffffffffffffffffffffffffffffffffff168173ffffffffffffffffffffffffffffffffffffffff1603610768576040517f08c379a000000000000000000000000000000000000000000000000000000000815260040161075f9061224b565b60405180910390fd5b80915050919050565b60008073ffffffffffffffffffffffffffffffffffffffff168273ffffffffffffffffffffffffffffffffffffffff16036107e1576040517f08c379a00000000000000000000000000000000000000000000000000000000081526004016107d8906122dd565b60405180910390fd5b600360008373ffffffffffffffffffffffffffffffffffffffff1673ffffffffffffffffffffffffffffffffffffffff168152602001908152602001600020549050919050565b60606001805461083790611f60565b80601f016020809104026020016040519081016040528092919081815260200182805461086390611f60565b80156108b05780601f10610885576101008083540402835291602001916108b0565b820191906000526020600020905b81548152906001019060200180831161089357829003601f168201915b5050505050905090565b60075481565b6108d26108cb610c2f565b8383611034565b5050565b6108e76108e1610c2f565b83610cf0565b610926576040517f08c379a000000000000000000000000000000000000000000000000000000000815260040161091d906121b9565b60405180910390fd5b610932848484846111a0565b50505050565b606061094382610bc3565b610982576040517f08c379a00000000000000000000000000000000000000000000000000000000081526004016109799061236f565b60405180910390fd5b60006006600084815260200190815260200160002080546109a290611f60565b80601f01602080910402602001604051908101604052809291908181526020018280546109ce90611f60565b8015610a1b5780601f106109f057610100808354040283529160200191610a1b565b820191906000526020600020905b8154815290600101906020018083116109fe57829003601f168201915b505050505090506000610a2c6111fc565b90506000815103610a41578192505050610a84565b600082511115610a76578082604051602001610a5e9291906123cb565b60405160208183030381529060405292505050610a84565b610a7f84611213565b925050505b919050565b600060076000815480929190610a9e9061241e565b9190505550610aaf336007546112ba565b610abb600754836112d8565b6007549050919050565b6000600560008473ffffffffffffffffffffffffffffffffffffffff1673ffffffffffffffffffffffffffffffffffffffff16815260200190815260200160002060008373ffffffffffffffffffffffffffffffffffffffff1673ffffffffffffffffffffffffffffffffffffffff16815260200190815260200160002060009054906101000a900460ff16905092915050565b60007f01ffc9a7000000000000000000000000000000000000000000000000000000007bffffffffffffffffffffffffffffffffffffffffffffffffffffffff1916827bffffffffffffffffffffffffffffffffffffffffffffffffffffffff1916149050919050565b60008073ffffffffffffffffffffffffffffffffffffffff166002600084815260200190815260200160002060009054906101000a900473ffffffffffffffffffffffffffffffffffffffff1673ffffffffffffffffffffffffffffffffffffffff1614159050919050565b600033905090565b816004600083815260200190815260200160002060006101000a81548173ffffffffffffffffffffffffffffffffffffffff021916908373ffffffffffffffffffffffffffffffffffffffff160217905550808273ffffffffffffffffffffffffffffffffffffffff16610caa836106c0565b73ffffffffffffffffffffffffffffffffffffffff167f8c5be1e5ebec7d5bd14f71427d1e84f3dd0314c0f7b2291e5b200ac8c7c3b92560405160405180910390a45050565b6000610cfb82610bc3565b610d3a576040517f08c379a0000000000000000000000000000000000000000000000000000000008152600401610d31906124d8565b60405180910390fd5b6000610d45836106c0565b90508073ffffffffffffffffffffffffffffffffffffffff168473ffffffffffffffffffffffffffffffffffffffff161480610db457508373ffffffffffffffffffffffffffffffffffffffff16610d9c846104a4565b73ffffffffffffffffffffffffffffffffffffffff16145b80610dc55750610dc48185610ac5565b5b91505092915050565b8273ffffffffffffffffffffffffffffffffffffffff16610dee826106c0565b73ffffffffffffffffffffffffffffffffffffffff1614610e44576040517f08c379a0000000000000000000000000000000000000000000000000000000008152600401610e3b9061256a565b60405180910390fd5b600073ffffffffffffffffffffffffffffffffffffffff168273ffffffffffffffffffffffffffffffffffffffff1603610eb3576040517f08c379a0000000000000000000000000000000000000000000000000000000008152600401610eaa906125fc565b60405180910390fd5b610ebe838383611345565b610ec9600082610c37565b6001600360008573ffffffffffffffffffffffffffffffffffffffff1673ffffffffffffffffffffffffffffffffffffffff1681526020019081526020016000206000828254610f19919061261c565b925050819055506001600360008473ffffffffffffffffffffffffffffffffffffffff1673ffffffffffffffffffffffffffffffffffffffff1681526020019081526020016000206000828254610f709190612650565b92505081905550816002600083815260200190815260200160002060006101000a81548173ffffffffffffffffffffffffffffffffffffffff021916908373ffffffffffffffffffffffffffffffffffffffff160217905550808273ffffffffffffffffffffffffffffffffffffffff168473ffffffffffffffffffffffffffffffffffffffff167fddf252ad1be2c89b69c2b068fc378daa952ba7f163c4a11628f55a4df523b3ef60405160405180910390a461102f83838361134a565b505050565b8173ffffffffffffffffffffffffffffffffffffffff168373ffffffffffffffffffffffffffffffffffffffff16036110a2576040517f08c379a0000000000000000000000000000000000000000000000000000000008152600401611099906126d0565b60405180910390fd5b80600560008573ffffffffffffffffffffffffffffffffffffffff1673ffffffffffffffffffffffffffffffffffffffff16815260200190815260200160002060008473ffffffffffffffffffffffffffffffffffffffff1673ffffffffffffffffffffffffffffffffffffffff16815260200190815260200160002060006101000a81548160ff0219169083151502179055508173ffffffffffffffffffffffffffffffffffffffff168373ffffffffffffffffffffffffffffffffffffffff167f17307eab39ab6107e8899845ad3d59bd9653f200f220920489ca2b5937696c31836040516111939190611941565b60405180910390a3505050565b6111ab848484610dce565b6111b78484848461134f565b6111f6576040517f08c379a00000000000000000000000000000000000000000000000000000000081526004016111ed90612762565b60405180910390fd5b50505050565b606060405180602001604052806000815250905090565b606061121e82610bc3565b61125d576040517f08c379a0000000000000000000000000000000000000000000000000000000008152600401611254906127f4565b60405180910390fd5b60006112676111fc565b9050600081511161128757604051806020016040528060008152506112b2565b80611291846114d6565b6040516020016112a29291906123cb565b6040516020818303038152906040525b915050919050565b6112d4828260405180602001604052806000815250611636565b5050565b6112e182610bc3565b611320576040517f08c379a000000000000000000000000000000000000000000000000000000000815260040161131790612886565b60405180910390fd5b806006600084815260200190815260200160002090816113409190612a52565b505050565b505050565b505050565b60006113708473ffffffffffffffffffffffffffffffffffffffff16611691565b156114c9578373ffffffffffffffffffffffffffffffffffffffff1663150b7a02611399610c2f565b8786866040518563ffffffff1660e01b81526004016113bb9493929190612b79565b6020604051808303816000875af19250505080156113f757506040513d601f19601f820116820180604052508101906113f49190612bda565b60015b611479573d8060008114611427576040519150601f19603f3d011682016040523d82523d6000602084013e61142c565b606091505b506000815103611471576040517f08c379a000000000000000000000000000000000000000000000000000000000815260040161146890612762565b60405180910390fd5b805181602001fd5b63150b7a0260e01b7bffffffffffffffffffffffffffffffffffffffffffffffffffffffff1916817bffffffffffffffffffffffffffffffffffffffffffffffffffffffff1916149150506114ce565b600190505b949350505050565b60606000820361151d576040518060400160405280600181526020017f30000000000000000000000000000000000000000000000000000000000000008152509050611631565b600082905060005b6000821461154f5780806115389061241e565b915050600a826115489190612c36565b9150611525565b60008167ffffffffffffffff81111561156b5761156a611c59565b5b6040519080825280601f01601f19166020018201604052801561159d5781602001600182028036833780820191505090505b5090505b6000851461162a576001826115b6919061261c565b9150600a856115c59190612c67565b60306115d19190612650565b60f81b8183815181106115e7576115e6612c98565b5b60200101907effffffffffffffffffffffffffffffffffffffffffffffffffffffffffffff1916908160001a905350600a856116239190612c36565b94506115a1565b8093505050505b919050565b61164083836116b4565b61164d600084848461134f565b61168c576040517f08c379a000000000000000000000000000000000000000000000000000000000815260040161168390612762565b60405180910390fd5b505050565b6000808273ffffffffffffffffffffffffffffffffffffffff163b119050919050565b600073ffffffffffffffffffffffffffffffffffffffff168273ffffffffffffffffffffffffffffffffffffffff1603611723576040517f08c379a000000000000000000000000000000000000000000000000000000000815260040161171a90612d13565b60405180910390fd5b61172c81610bc3565b1561176c576040517f08c379a000000000000000000000000000000000000000000000000000000000815260040161176390612d7f565b60405180910390fd5b61177860008383611345565b6001600360008473ffffffffffffffffffffffffffffffffffffffff1673ffffffffffffffffffffffffffffffffffffffff16815260200190815260200160002060008282546117c89190612650565b92505081905550816002600083815260200190815260200160002060006101000a81548173ffffffffffffffffffffffffffffffffffffffff021916908373ffffffffffffffffffffffffffffffffffffffff160217905550808273ffffffffffffffffffffffffffffffffffffffff16600073ffffffffffffffffffffffffffffffffffffffff167fddf252ad1be2c89b69c2b068fc378daa952ba7f163c4a11628f55a4df523b3ef60405160405180910390a46118896000838361134a565b5050565b6000604051905090565b600080fd5b600080fd5b60007fffffffff0000000000000000000000000000000000000000000000000000000082169050919050565b6118d6816118a1565b81146118e157600080fd5b50565b6000813590506118f3816118cd565b92915050565b60006020828403121561190f5761190e611897565b5b600061191d848285016118e4565b91505092915050565b60008115159050919050565b61193b81611926565b82525050565b60006020820190506119566000830184611932565b92915050565b600081519050919050565b600082825260208201905092915050565b60005b8381101561199657808201518184015260208101905061197b565b60008484015250505050565b6000601f19601f8301169050919050565b60006119be8261195c565b6119c88185611967565b93506119d8818560208601611978565b6119e1816119a2565b840191505092915050565b60006020820190508181036000830152611a0681846119b3565b905092915050565b6000819050919050565b611a2181611a0e565b8114611a2c57600080fd5b50565b600081359050611a3e81611a18565b92915050565b600060208284031215611a5a57611a59611897565b5b6000611a6884828501611a2f565b91505092915050565b600073ffffffffffffffffffffffffffffffffffffffff82169050919050565b6000611a9c82611a71565b9050919050565b611aac81611a91565b82525050565b6000602082019050611ac76000830184611aa3565b92915050565b611ad681611a91565b8114611ae157600080fd5b50565b600081359050611af381611acd565b92915050565b60008060408385031215611b1057611b0f611897565b5b6000611b1e85828601611ae4565b9250506020611b2f85828601611a2f565b9150509250929050565b600080600060608486031215611b5257611b51611897565b5b6000611b6086828701611ae4565b9350506020611b7186828701611ae4565b9250506040611b8286828701611a2f565b9150509250925092565b600060208284031215611ba257611ba1611897565b5b6000611bb084828501611ae4565b91505092915050565b611bc281611a0e565b82525050565b6000602082019050611bdd6000830184611bb9565b92915050565b611bec81611926565b8114611bf757600080fd5b50565b600081359050611c0981611be3565b92915050565b60008060408385031215611c2657611c25611897565b5b6000611c3485828601611ae4565b9250506020611c4585828601611bfa565b9150509250929050565b600080fd5b600080fd5b7f4e487b7100000000000000000000000000000000000000000000000000000000600052604160045260246000fd5b611c91826119a2565b810181811067ffffffffffffffff82111715611cb057611caf611c59565b5b80604052505050565b6000611cc361188d565b9050611ccf8282611c88565b919050565b600067ffffffffffffffff821115611cef57611cee611c59565b5b611cf8826119a2565b9050602081019050919050565b82818337600083830152505050565b6000611d27611d2284611cd4565b611cb9565b905082815260208101848484011115611d4357611d42611c54565b5b611d4e848285611d05565b509392505050565b600082601f830112611d6b57611d6a611c4f565b5b8135611d7b848260208601611d14565b91505092915050565b60008060008060808587031215611d9e57611d9d611897565b5b6000611dac87828801611ae4565b9450506020611dbd87828801611ae4565b9350506040611dce87828801611a2f565b925050606085013567ffffffffffffffff811115611def57611dee61189c565b5b611dfb87828801611d56565b91505092959194509250565b600067ffffffffffffffff821115611e2257611e21611c59565b5b611e2b826119a2565b9050602081019050919050565b6000611e4b611e4684611e07565b611cb9565b905082815260208101848484011115611e6757611e66611c54565b5b611e72848285611d05565b509392505050565b600082601f830112611e8f57611e8e611c4f565b5b8135611e9f848260208601611e38565b91505092915050565b600060208284031215611ebe57611ebd611897565b5b600082013567ffffffffffffffff811115611edc57611edb61189c565b5b611ee884828501611e7a565b91505092915050565b60008060408385031215611f0857611f07611897565b5b6000611f1685828601611ae4565b9250506020611f2785828601611ae4565b9150509250929050565b7f4e487b7100000000000000000000000000000000000000000000000000000000600052602260045260246000fd5b60006002820490506001821680611f7857607f821691505b602082108103611f8b57611f8a611f31565b5b50919050565b7f4552433732313a20617070726f76656420717565727920666f72206e6f6e657860008201527f697374656e7420746f6b656e0000000000000000000000000000000000000000602082015250565b6000611fed602c83611967565b9150611ff882611f91565b604082019050919050565b6000602082019050818103600083015261201c81611fe0565b9050919050565b7f4552433732313a20617070726f76616c20746f2063757272656e74206f776e6560008201527f7200000000000000000000000000000000000000000000000000000000000000602082015250565b600061207f602183611967565b915061208a82612023565b604082019050919050565b600060208201905081810360008301526120ae81612072565b9050919050565b7f4552433732313a20617070726f76652063616c6c6572206973206e6f74206f7760008201527f6e6572206e6f7220617070726f76656420666f7220616c6c0000000000000000602082015250565b6000612111603883611967565b915061211c826120b5565b604082019050919050565b6000602082019050818103600083015261214081612104565b9050919050565b7f4552433732313a207472616e736665722063616c6c6572206973206e6f74206f60008201527f776e6572206e6f7220617070726f766564000000000000000000000000000000602082015250565b60006121a3603183611967565b91506121ae82612147565b604082019050919050565b600060208201905081810360008301526121d281612196565b9050919050565b7f4552433732313a206f776e657220717565727920666f72206e6f6e657869737460008201527f656e7420746f6b656e0000000000000000000000000000000000000000000000602082015250565b6000612235602983611967565b9150612240826121d9565b604082019050919050565b6000602082019050818103600083015261226481612228565b9050919050565b7f4552433732313a2062616c616e636520717565727920666f7220746865207a6560008201527f726f206164647265737300000000000000000000000000000000000000000000602082015250565b60006122c7602a83611967565b91506122d28261226b565b604082019050919050565b600060208201905081810360008301526122f6816122ba565b9050919050565b7f45524337323155524953746f726167653a2055524920717565727920666f722060008201527f6e6f6e6578697374656e7420746f6b656e000000000000000000000000000000602082015250565b6000612359603183611967565b9150612364826122fd565b604082019050919050565b600060208201905081810360008301526123888161234c565b9050919050565b600081905092915050565b60006123a58261195c565b6123af818561238f565b93506123bf818560208601611978565b80840191505092915050565b60006123d7828561239a565b91506123e3828461239a565b91508190509392505050565b7f4e487b7100000000000000000000000000000000000000000000000000000000600052601160045260246000fd5b600061242982611a0e565b91507fffffffffffffffffffffffffffffffffffffffffffffffffffffffffffffffff820361245b5761245a6123ef565b5b600182019050919050565b7f4552433732313a206f70657261746f7220717565727920666f72206e6f6e657860008201527f697374656e7420746f6b656e0000000000000000000000000000000000000000602082015250565b60006124c2602c83611967565b91506124cd82612466565b604082019050919050565b600060208201905081810360008301526124f1816124b5565b9050919050565b7f4552433732313a207472616e736665722066726f6d20696e636f72726563742060008201527f6f776e6572000000000000000000000000000000000000000000000000000000602082015250565b6000612554602583611967565b915061255f826124f8565b604082019050919050565b6000602082019050818103600083015261258381612547565b9050919050565b7f4552433732313a207472616e7366657220746f20746865207a65726f2061646460008201527f7265737300000000000000000000000000000000000000000000000000000000602082015250565b60006125e6602483611967565b91506125f18261258a565b604082019050919050565b60006020820190508181036000830152612615816125d9565b9050919050565b600061262782611a0e565b915061263283611a0e565b925082820390508181111561264a576126496123ef565b5b92915050565b600061265b82611a0e565b915061266683611a0e565b925082820190508082111561267e5761267d6123ef565b5b92915050565b7f4552433732313a20617070726f766520746f2063616c6c657200000000000000600082015250565b60006126ba601983611967565b91506126c582612684565b602082019050919050565b600060208201905081810360008301526126e9816126ad565b9050919050565b7f4552433732313a207472616e7366657220746f206e6f6e20455243373231526560008201527f63656976657220696d706c656d656e7465720000000000000000000000000000602082015250565b600061274c603283611967565b9150612757826126f0565b604082019050919050565b6000602082019050818103600083015261277b8161273f565b9050919050565b7f4552433732314d657461646174613a2055524920717565727920666f72206e6f60008201527f6e6578697374656e7420746f6b656e0000000000000000000000000000000000602082015250565b60006127de602f83611967565b91506127e982612782565b604082019050919050565b6000602082019050818103600083015261280d816127d1565b9050919050565b7f45524337323155524953746f726167653a2055524920736574206f66206e6f6e60008201527f6578697374656e7420746f6b656e000000000000000000000000000000000000602082015250565b6000612870602e83611967565b915061287b82612814565b604082019050919050565b6000602082019050818103600083015261289f81612863565b9050919050565b60008190508160005260206000209050919050565b60006020601f8301049050919050565b600082821b905092915050565b6000600883026129087fffffffffffffffffffffffffffffffffffffffffffffffffffffffffffffffff826128cb565b61291286836128cb565b95508019841693508086168417925050509392505050565b6000819050919050565b600061294f61294a61294584611a0e565b61292a565b611a0e565b9050919050565b6000819050919050565b61296983612934565b61297d61297582612956565b8484546128d8565b825550505050565b600090565b612992612985565b61299d818484612960565b505050565b5b818110156129c1576129b660008261298a565b6001810190506129a3565b5050565b601f821115612a06576129d7816128a6565b6129e0846128bb565b810160208510156129ef578190505b612a036129fb856128bb565b8301826129a2565b50505b505050565b600082821c905092915050565b6000612a2960001984600802612a0b565b1980831691505092915050565b6000612a428383612a18565b9150826002028217905092915050565b612a5b8261195c565b67ffffffffffffffff811115612a7457612a73611c59565b5b612a7e8254611f60565b612a898282856129c5565b600060209050601f831160018114612abc5760008415612aaa578287015190505b612ab48582612a36565b865550612b1c565b601f198416612aca866128a6565b60005b82811015612af257848901518255600182019150602085019450602081019050612acd565b86831015612b0f5784890151612b0b601f891682612a18565b8355505b6001600288020188555050505b505050505050565b600081519050919050565b600082825260208201905092915050565b6000612b4b82612b24565b612b558185612b2f565b9350612b65818560208601611978565b612b6e816119a2565b840191505092915050565b6000608082019050612b8e6000830187611aa3565b612b9b6020830186611aa3565b612ba86040830185611bb9565b8181036060830152612bba8184612b40565b905095945050505050565b600081519050612bd4816118cd565b92915050565b600060208284031215612bf057612bef611897565b5b6000612bfe84828501612bc5565b91505092915050565b7f4e487b7100000000000000000000000000000000000000000000000000000000600052601260045260246000fd5b6000612c4182611a0e565b9150612c4c83611a0e565b925082612c5c57612c5b612c07565b5b828204905092915050565b6000612c7282611a0e565b9150612c7d83611a0e565b925082612c8d57612c8c612c07565b5b828206905092915050565b7f4e487b7100000000000000000000000000000000000000000000000000000000600052603260045260246000fd5b7f4552433732313a206d696e7420746f20746865207a65726f2061646472657373600082015250565b6000612cfd602083611967565b9150612d0882612cc7565b602082019050919050565b60006020820190508181036000830152612d2c81612cf0565b9050919050565b7f4552433732313a20746f6b656e20616c7265616479206d696e74656400000000600082015250565b6000612d69601c83611967565b9150612d7482612d33565b602082019050919050565b60006020820190508181036000830152612d9881612d5c565b905091905056fea2646970667358221220077e8282ac51fe92eef92a8352ee3f814bbd26d0033d0f5ffc03c91d9a36d06264736f6c63430008110033",
  "immutableReferences": {},
  "source": "// SPDX-License-Identifier: MIT\r\npragma solidity ^0.8.4;\r\n\r\n\r\nimport \"@openzeppelin/contracts/token/ERC721/extensions/ERC721URIStorage.sol\";\r\n\r\ncontract NFT is ERC721URIStorage{\r\n    //Variabile che conta il numero di NFT,  una variabile salvata all'interno della blockchain\r\n    uint public tokenCount;\r\n    //Chiamo il costruttore del contratto che sto ereditando.\r\n    //nome e simbolo dell'NFT\r\n    constructor() ERC721(\"Dapp NFT\",\"DAPP\"){}\r\n\r\n    //mint produrr nuovi NFT\r\n    //tokenURI sono i metadati dell'NFT, cio  il link al contenuto dell'nft che si trova in IPFS\r\n    function mint(string memory _tokenURI) external returns(uint){\r\n        tokenCount++;\r\n        //producto l'nft chiamando la funzione ereditata da erc721\r\n        _safeMint(msg.sender, tokenCount);\r\n        //setta i metadata per il nuovo NFT creato\r\n        _setTokenURI(tokenCount, _tokenURI);\r\n        //retiruiamo l'id del nuovo NFT creato\r\n        return(tokenCount);\r\n    }\r\n}",
  "sourcePath": "D:\\Desktop\\Universit\\Sicurezza dei dati\\NFT-marketplace\\src\\backend\\contracts\\NFT.sol",
  "compiler": {
    "name": "solc",
    "version": "0.8.17+commit.8df45f5f.Emscripten.clang"
  },
  "schemaVersion": "3.4.11",
  "updatedAt": "2023-02-02T12:48:55.819Z",
  "networkType": "ethereum",
  "devdoc": {
    "kind": "dev",
    "methods": {
      "approve(address,uint256)": {
        "details": "See {IERC721-approve}."
      },
      "balanceOf(address)": {
        "details": "See {IERC721-balanceOf}."
      },
      "getApproved(uint256)": {
        "details": "See {IERC721-getApproved}."
      },
      "isApprovedForAll(address,address)": {
        "details": "See {IERC721-isApprovedForAll}."
      },
      "name()": {
        "details": "See {IERC721Metadata-name}."
      },
      "ownerOf(uint256)": {
        "details": "See {IERC721-ownerOf}."
      },
      "safeTransferFrom(address,address,uint256)": {
        "details": "See {IERC721-safeTransferFrom}."
      },
      "safeTransferFrom(address,address,uint256,bytes)": {
        "details": "See {IERC721-safeTransferFrom}."
      },
      "setApprovalForAll(address,bool)": {
        "details": "See {IERC721-setApprovalForAll}."
      },
      "supportsInterface(bytes4)": {
        "details": "See {IERC165-supportsInterface}."
      },
      "symbol()": {
        "details": "See {IERC721Metadata-symbol}."
      },
      "tokenURI(uint256)": {
        "details": "See {IERC721Metadata-tokenURI}."
      },
      "transferFrom(address,address,uint256)": {
        "details": "See {IERC721-transferFrom}."
      }
    },
    "version": 1
  },
  "userdoc": {
    "kind": "user",
    "methods": {},
    "version": 1
  }
}